{
  "_format": "hh-sol-artifact-1",
  "contractName": "PushCoreV1",
  "sourceName": "contracts/PushCoreV1.sol",
  "abi": [
    {
      "inputs": [
        {
          "internalType": "address",
          "name": "_runTaskVerifierAddress",
          "type": "address"
        },
        {
          "internalType": "address",
          "name": "_sleepTaskVerifierAddress",
          "type": "address"
        },
        {
          "internalType": "address",
          "name": "_breathTaskVerifier",
          "type": "address"
        }
      ],
      "stateMutability": "payable",
      "type": "constructor"
    },
    {
      "inputs": [],
      "name": "AlreadyClaimed",
      "type": "error"
    },
    {
      "inputs": [],
      "name": "ClaimBeforeDeadline",
      "type": "error"
    },
    {
      "inputs": [],
      "name": "DeadlineMiss",
      "type": "error"
    },
    {
      "inputs": [],
      "name": "InsufficientAmount",
      "type": "error"
    },
    {
      "inputs": [],
      "name": "InvalidActivity",
      "type": "error"
    },
    {
      "inputs": [],
      "name": "InvalidAddress",
      "type": "error"
    },
    {
      "inputs": [],
      "name": "InvalidClaimer",
      "type": "error"
    },
    {
      "inputs": [],
      "name": "InvalidIndex",
      "type": "error"
    },
    {
      "inputs": [],
      "name": "InvalidProof",
      "type": "error"
    },
    {
      "inputs": [],
      "name": "InvalidReward",
      "type": "error"
    },
    {
      "inputs": [],
      "name": "InvalidTaskStatus",
      "type": "error"
    },
    {
      "inputs": [],
      "name": "NoReentrancy",
      "type": "error"
    },
    {
      "inputs": [],
      "name": "ReentrancyGuardReentrantCall",
      "type": "error"
    },
    {
      "inputs": [],
      "name": "TaskNotFound",
      "type": "error"
    },
    {
      "anonymous": false,
      "inputs": [
        {
          "indexed": true,
          "internalType": "address",
          "name": "sender",
          "type": "address"
        },
        {
          "indexed": true,
          "internalType": "address",
          "name": "beneficiary",
          "type": "address"
        },
        {
          "indexed": false,
          "internalType": "uint256",
          "name": "taskIndex",
          "type": "uint256"
        }
      ],
      "name": "ClaimReward",
      "type": "event"
    },
    {
      "anonymous": false,
      "inputs": [
        {
          "indexed": true,
          "internalType": "address",
          "name": "sender",
          "type": "address"
        },
        {
          "indexed": true,
          "internalType": "address",
          "name": "beneficiary",
          "type": "address"
        },
        {
          "indexed": false,
          "internalType": "uint256",
          "name": "taskIndex",
          "type": "uint256"
        }
      ],
      "name": "PostTask",
      "type": "event"
    },
    {
      "inputs": [],
      "name": "APPLE_ADDRESS",
      "outputs": [
        {
          "internalType": "address",
          "name": "",
          "type": "address"
        }
      ],
      "stateMutability": "view",
      "type": "function"
    },
    {
      "inputs": [],
      "name": "breathTaskVerifier",
      "outputs": [
        {
          "internalType": "contract ITaskVerifier",
          "name": "",
          "type": "address"
        }
      ],
      "stateMutability": "view",
      "type": "function"
    },
    {
      "inputs": [
        {
          "internalType": "uint256",
          "name": "_index",
          "type": "uint256"
        }
      ],
      "name": "claimMissDeadlineTask",
      "outputs": [],
      "stateMutability": "payable",
      "type": "function"
    },
    {
      "inputs": [
        {
          "internalType": "uint256",
          "name": "_taskIndex",
          "type": "uint256"
        },
        {
          "internalType": "uint256[24]",
          "name": "_proof",
          "type": "uint256[24]"
        },
        {
          "internalType": "uint256[4]",
          "name": "_pubSignals",
          "type": "uint256[4]"
        }
      ],
      "name": "claimReward",
      "outputs": [],
      "stateMutability": "payable",
      "type": "function"
    },
    {
      "inputs": [
        {
          "internalType": "string",
          "name": "text",
          "type": "string"
        }
      ],
      "name": "hello",
      "outputs": [
        {
          "internalType": "string",
          "name": "",
          "type": "string"
        }
      ],
      "stateMutability": "pure",
      "type": "function"
    },
    {
      "inputs": [],
      "name": "nextTaskIndex",
      "outputs": [
        {
          "internalType": "uint256",
          "name": "",
          "type": "uint256"
        }
      ],
      "stateMutability": "view",
      "type": "function"
    },
    {
      "inputs": [],
      "name": "owner",
      "outputs": [
        {
          "internalType": "address payable",
          "name": "",
          "type": "address"
        }
      ],
      "stateMutability": "view",
      "type": "function"
    },
    {
      "inputs": [
        {
          "internalType": "address",
          "name": "_beneficiary",
          "type": "address"
        },
        {
          "internalType": "uint8",
          "name": "_activity",
          "type": "uint8"
        },
        {
          "internalType": "uint16",
          "name": "_numTimes",
          "type": "uint16"
        },
        {
          "internalType": "uint16",
          "name": "_totalTimes",
          "type": "uint16"
        },
        {
          "internalType": "uint16",
          "name": "_condition1",
          "type": "uint16"
        },
        {
          "internalType": "uint16",
          "name": "_condition2",
          "type": "uint16"
        },
        {
          "internalType": "uint256",
          "name": "_reward",
          "type": "uint256"
        },
        {
          "internalType": "uint256",
          "name": "_startTime",
          "type": "uint256"
        },
        {
          "internalType": "uint256",
          "name": "_endTime",
          "type": "uint256"
        }
      ],
      "name": "postTask",
      "outputs": [],
      "stateMutability": "payable",
      "type": "function"
    },
    {
      "inputs": [],
      "name": "runTaskVerifier",
      "outputs": [
        {
          "internalType": "contract ITaskVerifier",
          "name": "",
          "type": "address"
        }
      ],
      "stateMutability": "view",
      "type": "function"
    },
    {
      "inputs": [],
      "name": "sleepTaskVerifier",
      "outputs": [
        {
          "internalType": "contract ITaskVerifier",
          "name": "",
          "type": "address"
        }
      ],
      "stateMutability": "view",
      "type": "function"
    },
    {
      "inputs": [
        {
          "internalType": "uint256",
          "name": "",
          "type": "uint256"
        }
      ],
      "name": "tasks",
      "outputs": [
        {
          "internalType": "uint256",
          "name": "index",
          "type": "uint256"
        },
        {
          "internalType": "address",
          "name": "depositor",
          "type": "address"
        },
        {
          "internalType": "address",
          "name": "beneficiary",
          "type": "address"
        },
        {
          "internalType": "uint8",
          "name": "activity",
          "type": "uint8"
        },
        {
          "internalType": "uint16",
          "name": "numTimes",
          "type": "uint16"
        },
        {
          "internalType": "uint16",
          "name": "totalTimes",
          "type": "uint16"
        },
        {
          "internalType": "uint16",
          "name": "condition1",
          "type": "uint16"
        },
        {
          "internalType": "uint16",
          "name": "condition2",
          "type": "uint16"
        },
        {
          "internalType": "uint256",
          "name": "reward",
          "type": "uint256"
        },
        {
          "internalType": "uint256",
          "name": "startTime",
          "type": "uint256"
        },
        {
          "internalType": "uint256",
          "name": "endTime",
          "type": "uint256"
        },
        {
          "internalType": "bool",
          "name": "isActive",
          "type": "bool"
        }
      ],
      "stateMutability": "view",
      "type": "function"
    },
    {
      "inputs": [
        {
          "internalType": "address",
          "name": "",
          "type": "address"
        },
        {
          "internalType": "uint256",
          "name": "",
          "type": "uint256"
        }
      ],
      "name": "tasksAssigned",
      "outputs": [
        {
          "internalType": "uint256",
          "name": "",
          "type": "uint256"
        }
      ],
      "stateMutability": "view",
      "type": "function"
    },
    {
      "inputs": [
        {
          "internalType": "address",
          "name": "",
          "type": "address"
        },
        {
          "internalType": "uint256",
          "name": "",
          "type": "uint256"
        }
      ],
      "name": "tasksCreated",
      "outputs": [
        {
          "internalType": "uint256",
          "name": "",
          "type": "uint256"
        }
      ],
      "stateMutability": "view",
      "type": "function"
    },
    {
      "inputs": [
        {
          "internalType": "bool",
          "name": "isBeneficiary",
          "type": "bool"
        }
      ],
      "name": "viewTasks",
      "outputs": [
        {
          "components": [
            {
              "internalType": "uint256",
              "name": "index",
              "type": "uint256"
            },
            {
              "internalType": "address",
              "name": "depositor",
              "type": "address"
            },
            {
              "internalType": "address",
              "name": "beneficiary",
              "type": "address"
            },
            {
              "internalType": "uint8",
              "name": "activity",
              "type": "uint8"
            },
            {
              "internalType": "uint16",
              "name": "numTimes",
              "type": "uint16"
            },
            {
              "internalType": "uint16",
              "name": "totalTimes",
              "type": "uint16"
            },
            {
              "internalType": "uint16",
              "name": "condition1",
              "type": "uint16"
            },
            {
              "internalType": "uint16",
              "name": "condition2",
              "type": "uint16"
            },
            {
              "internalType": "uint256",
              "name": "reward",
              "type": "uint256"
            },
            {
              "internalType": "uint256",
              "name": "startTime",
              "type": "uint256"
            },
            {
              "internalType": "uint256",
              "name": "endTime",
              "type": "uint256"
            },
            {
              "internalType": "bool",
              "name": "isActive",
              "type": "bool"
            }
          ],
          "internalType": "struct PushCoreV1.Task[]",
          "name": "",
          "type": "tuple[]"
        }
      ],
      "stateMutability": "view",
      "type": "function"
    }
  ],
  "bytecode": "0x6080604052600060055560006006556000600755600160085560405162002a8138038062002a8183398181016040528101906200003d9190620001bc565b600160008190555033600160006101000a81548173ffffffffffffffffffffffffffffffffffffffff021916908373ffffffffffffffffffffffffffffffffffffffff16021790555082600260006101000a81548173ffffffffffffffffffffffffffffffffffffffff021916908373ffffffffffffffffffffffffffffffffffffffff16021790555081600360006101000a81548173ffffffffffffffffffffffffffffffffffffffff021916908373ffffffffffffffffffffffffffffffffffffffff16021790555080600460006101000a81548173ffffffffffffffffffffffffffffffffffffffff021916908373ffffffffffffffffffffffffffffffffffffffff16021790555050505062000218565b600080fd5b600073ffffffffffffffffffffffffffffffffffffffff82169050919050565b6000620001848262000157565b9050919050565b620001968162000177565b8114620001a257600080fd5b50565b600081519050620001b6816200018b565b92915050565b600080600060608486031215620001d857620001d762000152565b5b6000620001e886828701620001a5565b9350506020620001fb86828701620001a5565b92505060406200020e86828701620001a5565b9150509250925092565b61285980620002286000396000f3fe6080604052600436106100dd5760003560e01c80638d9776721161007f5780639ece08e1116100595780639ece08e1146102a1578063a777d0dc146102de578063e1f675dc1461031b578063ea1cf8cf14610358576100dd565b80638d977672146102125780638da5cb5b1461025a5780639033418d14610285576100dd565b80631f4d75e2116100bb5780631f4d75e21461015457806331e809d51461017f5780635675af1d146101aa578063800db6c4146101e7576100dd565b806305c8126d146100e25780631344ba221461010d5780631726325d14610138575b600080fd5b3480156100ee57600080fd5b506100f7610374565b6040516101049190611d2e565b60405180910390f35b34801561011957600080fd5b5061012261039a565b60405161012f9190611d62565b60405180910390f35b610152600480360381019061014d9190611dbd565b6103a0565b005b34801561016057600080fd5b506101696107d9565b6040516101769190611e0b565b60405180910390f35b34801561018b57600080fd5b506101946107f1565b6040516101a19190611d2e565b60405180910390f35b3480156101b657600080fd5b506101d160048036038101906101cc9190611e52565b610817565b6040516101de9190611d62565b60405180910390f35b3480156101f357600080fd5b506101fc610848565b6040516102099190611d2e565b60405180910390f35b34801561021e57600080fd5b5061023960048036038101906102349190611dbd565b61086e565b6040516102519c9b9a99989796959493929190611ee6565b60405180910390f35b34801561026657600080fd5b5061026f610970565b60405161027c9190611fc1565b60405180910390f35b61029f600480360381019061029a9190612034565b610996565b005b3480156102ad57600080fd5b506102c860048036038101906102c3919061212a565b610e8b565b6040516102d59190612348565b60405180910390f35b3480156102ea57600080fd5b50610305600480360381019061030091906124b0565b610eec565b6040516103129190612578565b60405180910390f35b34801561032757600080fd5b50610342600480360381019061033d9190611e52565b610ef6565b60405161034f9190611d62565b60405180910390f35b610372600480360381019061036d91906125e3565b610f27565b005b600460009054906101000a900473ffffffffffffffffffffffffffffffffffffffff1681565b60075481565b6001600854146103dc576040517f583fe88600000000000000000000000000000000000000000000000000000000815260040160405180910390fd5b6000600881905550806000600b82815481106103fb576103fa612638565b5b906000526020600020906007020160405180610180016040529081600082015481526020016001820160009054906101000a900473ffffffffffffffffffffffffffffffffffffffff1673ffffffffffffffffffffffffffffffffffffffff1673ffffffffffffffffffffffffffffffffffffffff1681526020016002820160009054906101000a900473ffffffffffffffffffffffffffffffffffffffff1673ffffffffffffffffffffffffffffffffffffffff1673ffffffffffffffffffffffffffffffffffffffff1681526020016002820160149054906101000a900460ff1660ff1660ff1681526020016002820160159054906101000a900461ffff1661ffff1661ffff1681526020016002820160179054906101000a900461ffff1661ffff1661ffff1681526020016002820160199054906101000a900461ffff1661ffff1661ffff16815260200160028201601b9054906101000a900461ffff1661ffff1661ffff1681526020016003820154815260200160048201548152602001600582015481526020016006820160009054906101000a900460ff16151515158152505090503373ffffffffffffffffffffffffffffffffffffffff16816040015173ffffffffffffffffffffffffffffffffffffffff160361060c576040517f044bc28000000000000000000000000000000000000000000000000000000000815260040160405180910390fd5b3373ffffffffffffffffffffffffffffffffffffffff16816020015173ffffffffffffffffffffffffffffffffffffffff1614610675576040517f044bc28000000000000000000000000000000000000000000000000000000000815260040160405180910390fd5b4281610140015111156106b4576040517fcad732ac00000000000000000000000000000000000000000000000000000000815260040160405180910390fd5b6000600b84815481106106ca576106c9612638565b5b9060005260206000209060070201905060008160060160006101000a81548160ff0219169083151502179055503373ffffffffffffffffffffffffffffffffffffffff166108fc82600301549081150290604051600060405180830381858888f19350505050158015610741573d6000803e3d6000fd5b508060020160009054906101000a900473ffffffffffffffffffffffffffffffffffffffff1673ffffffffffffffffffffffffffffffffffffffff163373ffffffffffffffffffffffffffffffffffffffff167f7e77f685b38c861064cb08f2776eb5dfd3c82f652ed9f21221b8c53b75628e51866040516107c39190611d62565b60405180910390a3505050600160088190555050565b73c77bfa8247878cf40e00dd27306e63313f894a7281565b600360009054906101000a900473ffffffffffffffffffffffffffffffffffffffff1681565b6009602052816000526040600020818154811061083357600080fd5b90600052602060002001600091509150505481565b600260009054906101000a900473ffffffffffffffffffffffffffffffffffffffff1681565b600b818154811061087e57600080fd5b90600052602060002090600702016000915090508060000154908060010160009054906101000a900473ffffffffffffffffffffffffffffffffffffffff16908060020160009054906101000a900473ffffffffffffffffffffffffffffffffffffffff16908060020160149054906101000a900460ff16908060020160159054906101000a900461ffff16908060020160179054906101000a900461ffff16908060020160199054906101000a900461ffff169080600201601b9054906101000a900461ffff16908060030154908060040154908060050154908060060160009054906101000a900460ff1690508c565b600160009054906101000a900473ffffffffffffffffffffffffffffffffffffffff1681565b6001600854146109d2576040517f583fe88600000000000000000000000000000000000000000000000000000000815260040160405180910390fd5b6000600881905550828960008203610a16576040517f28829e8200000000000000000000000000000000000000000000000000000000815260040160405180910390fd5b81341015610a50576040517f5945ea5600000000000000000000000000000000000000000000000000000000815260040160405180910390fd5b600073ffffffffffffffffffffffffffffffffffffffff168173ffffffffffffffffffffffffffffffffffffffff1603610ab6576040517fe6c4247b00000000000000000000000000000000000000000000000000000000815260040160405180910390fd5b600060405180610180016040528060075481526020013373ffffffffffffffffffffffffffffffffffffffff1681526020018d73ffffffffffffffffffffffffffffffffffffffff1681526020018c60ff1681526020018b61ffff1681526020018a61ffff1681526020018961ffff1681526020018861ffff168152602001670de0b6b3a764000088610b499190612696565b8152602001868152602001858152602001600115158152509050600b8190806001815401808255809150506001900390600052602060002090600702016000909190919091506000820151816000015560208201518160010160006101000a81548173ffffffffffffffffffffffffffffffffffffffff021916908373ffffffffffffffffffffffffffffffffffffffff16021790555060408201518160020160006101000a81548173ffffffffffffffffffffffffffffffffffffffff021916908373ffffffffffffffffffffffffffffffffffffffff16021790555060608201518160020160146101000a81548160ff021916908360ff16021790555060808201518160020160156101000a81548161ffff021916908361ffff16021790555060a08201518160020160176101000a81548161ffff021916908361ffff16021790555060c08201518160020160196101000a81548161ffff021916908361ffff16021790555060e082015181600201601b6101000a81548161ffff021916908361ffff1602179055506101008201518160030155610120820151816004015561014082015181600501556101608201518160060160006101000a81548160ff021916908315150217905550505060096000826020015173ffffffffffffffffffffffffffffffffffffffff1673ffffffffffffffffffffffffffffffffffffffff16815260200190815260200160002081600001519080600181540180825580915050600190039060005260206000200160009091909190915055600a6000826040015173ffffffffffffffffffffffffffffffffffffffff1673ffffffffffffffffffffffffffffffffffffffff1681526020019081526020016000208160000151908060018154018082558091505060019003906000526020600020016000909190919091505560076000815480929190610e07906126d8565b91905055508b73ffffffffffffffffffffffffffffffffffffffff163373ffffffffffffffffffffffffffffffffffffffff167f7e8b0f8f82c2a31c69daf451164dae2823df7b5c2ebef38302c1eb5dffebccca8360000151604051610e6d9190611d62565b60405180910390a35050506001600881905550505050505050505050565b60606000610e988361185f565b90506000815103610ed5576040517fc325ae3300000000000000000000000000000000000000000000000000000000815260040160405180910390fd5b6000610ee082611997565b90508092505050919050565b6060819050919050565b600a6020528160005260406000208181548110610f1257600080fd5b90600052602060002001600091509150505481565b600160085414610f63576040517f583fe88600000000000000000000000000000000000000000000000000000000815260040160405180910390fd5b600060088190555082816007548210610fa8576040517f63df817100000000000000000000000000000000000000000000000000000000815260040160405180910390fd5b6000600b8381548110610fbe57610fbd612638565b5b906000526020600020906007020160405180610180016040529081600082015481526020016001820160009054906101000a900473ffffffffffffffffffffffffffffffffffffffff1673ffffffffffffffffffffffffffffffffffffffff1673ffffffffffffffffffffffffffffffffffffffff1681526020016002820160009054906101000a900473ffffffffffffffffffffffffffffffffffffffff1673ffffffffffffffffffffffffffffffffffffffff1673ffffffffffffffffffffffffffffffffffffffff1681526020016002820160149054906101000a900460ff1660ff1660ff1681526020016002820160159054906101000a900461ffff1661ffff1661ffff1681526020016002820160179054906101000a900461ffff1661ffff1661ffff1681526020016002820160199054906101000a900461ffff1661ffff1661ffff16815260200160028201601b9054906101000a900461ffff1661ffff1661ffff1681526020016003820154815260200160048201548152602001600582015481526020016006820160009054906101000a900460ff16151515158152505090503373ffffffffffffffffffffffffffffffffffffffff16816040015173ffffffffffffffffffffffffffffffffffffffff16146111cf576040517f044bc28000000000000000000000000000000000000000000000000000000000815260040160405180910390fd5b60001515816101600151151503611212576040517f646cf55800000000000000000000000000000000000000000000000000000000815260040160405180910390fd5b8160006004811061122657611225612638565b5b602002013581610120015114801561125a57508160016004811061124d5761124c612638565b5b6020020135816101400151145b801561128557508160026004811061127557611274612638565b5b60200201358160e0015161ffff16145b80156112b05750816003600481106112a05761129f612638565b5b60200201358160c0015161ffff16145b6112ef576040517f08c379a00000000000000000000000000000000000000000000000000000000081526004016112e69061276c565b60405180910390fd5b6000600b878154811061130557611304612638565b5b906000526020600020906007020160405180610180016040529081600082015481526020016001820160009054906101000a900473ffffffffffffffffffffffffffffffffffffffff1673ffffffffffffffffffffffffffffffffffffffff1673ffffffffffffffffffffffffffffffffffffffff1681526020016002820160009054906101000a900473ffffffffffffffffffffffffffffffffffffffff1673ffffffffffffffffffffffffffffffffffffffff1673ffffffffffffffffffffffffffffffffffffffff1681526020016002820160149054906101000a900460ff1660ff1660ff1681526020016002820160159054906101000a900461ffff1661ffff1661ffff1681526020016002820160179054906101000a900461ffff1661ffff1661ffff1681526020016002820160199054906101000a900461ffff1661ffff1661ffff16815260200160028201601b9054906101000a900461ffff1661ffff1661ffff1681526020016003820154815260200160048201548152602001600582015481526020016006820160009054906101000a900460ff1615151515815250509050600080826060015160ff160361156257600260009054906101000a900473ffffffffffffffffffffffffffffffffffffffff1673ffffffffffffffffffffffffffffffffffffffff16636183f6b488886040518363ffffffff1660e01b815260040161151a9291906127b6565b602060405180830381865afa158015611537573d6000803e3d6000fd5b505050506040513d601f19601f8201168201806040525081019061155b91906127f6565b90506116fe565b6001826060015160ff160361161657600360009054906101000a900473ffffffffffffffffffffffffffffffffffffffff1673ffffffffffffffffffffffffffffffffffffffff16636183f6b488886040518363ffffffff1660e01b81526004016115ce9291906127b6565b602060405180830381865afa1580156115eb573d6000803e3d6000fd5b505050506040513d601f19601f8201168201806040525081019061160f91906127f6565b90506116fd565b6002826060015160ff16036116ca57600460009054906101000a900473ffffffffffffffffffffffffffffffffffffffff1673ffffffffffffffffffffffffffffffffffffffff16636183f6b488886040518363ffffffff1660e01b81526004016116829291906127b6565b602060405180830381865afa15801561169f573d6000803e3d6000fd5b505050506040513d601f19601f820116820180604052508101906116c391906127f6565b90506116fc565b6040517f3cd4c35900000000000000000000000000000000000000000000000000000000815260040160405180910390fd5b5b5b80611735576040517f09bde33900000000000000000000000000000000000000000000000000000000815260040160405180910390fd5b6000600b898154811061174b5761174a612638565b5b9060005260206000209060070201905060008160060160006101000a81548160ff0219169083151502179055503373ffffffffffffffffffffffffffffffffffffffff166108fc82600301549081150290604051600060405180830381858888f193505050501580156117c2573d6000803e3d6000fd5b503373ffffffffffffffffffffffffffffffffffffffff168160020160009054906101000a900473ffffffffffffffffffffffffffffffffffffffff1673ffffffffffffffffffffffffffffffffffffffff167f7e77f685b38c861064cb08f2776eb5dfd3c82f652ed9f21221b8c53b75628e518b6040516118449190611d62565b60405180910390a35050505050506001600881905550505050565b60608082156118fd57600a60003373ffffffffffffffffffffffffffffffffffffffff1673ffffffffffffffffffffffffffffffffffffffff1681526020019081526020016000208054806020026020016040519081016040528092919081815260200182805480156118f157602002820191906000526020600020905b8154815260200190600101908083116118dd575b5050505050905061198e565b600960003373ffffffffffffffffffffffffffffffffffffffff1673ffffffffffffffffffffffffffffffffffffffff16815260200190815260200160002080548060200260200160405190810160405280929190818152602001828054801561198657602002820191906000526020600020905b815481526020019060010190808311611972575b505050505090505b80915050919050565b60606000825167ffffffffffffffff8111156119b6576119b5612385565b5b6040519080825280602002602001820160405280156119ef57816020015b6119dc611c0d565b8152602001906001900390816119d45790505b50905060005b8351811015611c0357600b848281518110611a1357611a12612638565b5b602002602001015181548110611a2c57611a2b612638565b5b906000526020600020906007020160405180610180016040529081600082015481526020016001820160009054906101000a900473ffffffffffffffffffffffffffffffffffffffff1673ffffffffffffffffffffffffffffffffffffffff1673ffffffffffffffffffffffffffffffffffffffff1681526020016002820160009054906101000a900473ffffffffffffffffffffffffffffffffffffffff1673ffffffffffffffffffffffffffffffffffffffff1673ffffffffffffffffffffffffffffffffffffffff1681526020016002820160149054906101000a900460ff1660ff1660ff1681526020016002820160159054906101000a900461ffff1661ffff1661ffff1681526020016002820160179054906101000a900461ffff1661ffff1661ffff1681526020016002820160199054906101000a900461ffff1661ffff1661ffff16815260200160028201601b9054906101000a900461ffff1661ffff1661ffff1681526020016003820154815260200160048201548152602001600582015481526020016006820160009054906101000a900460ff161515151581525050828281518110611be557611be4612638565b5b60200260200101819052508080611bfb906126d8565b9150506119f5565b5080915050919050565b60405180610180016040528060008152602001600073ffffffffffffffffffffffffffffffffffffffff168152602001600073ffffffffffffffffffffffffffffffffffffffff168152602001600060ff168152602001600061ffff168152602001600061ffff168152602001600061ffff168152602001600061ffff1681526020016000815260200160008152602001600081526020016000151581525090565b600073ffffffffffffffffffffffffffffffffffffffff82169050919050565b6000819050919050565b6000611cf4611cef611cea84611caf565b611ccf565b611caf565b9050919050565b6000611d0682611cd9565b9050919050565b6000611d1882611cfb565b9050919050565b611d2881611d0d565b82525050565b6000602082019050611d436000830184611d1f565b92915050565b6000819050919050565b611d5c81611d49565b82525050565b6000602082019050611d776000830184611d53565b92915050565b6000604051905090565b600080fd5b600080fd5b611d9a81611d49565b8114611da557600080fd5b50565b600081359050611db781611d91565b92915050565b600060208284031215611dd357611dd2611d87565b5b6000611de184828501611da8565b91505092915050565b6000611df582611caf565b9050919050565b611e0581611dea565b82525050565b6000602082019050611e206000830184611dfc565b92915050565b611e2f81611dea565b8114611e3a57600080fd5b50565b600081359050611e4c81611e26565b92915050565b60008060408385031215611e6957611e68611d87565b5b6000611e7785828601611e3d565b9250506020611e8885828601611da8565b9150509250929050565b600060ff82169050919050565b611ea881611e92565b82525050565b600061ffff82169050919050565b611ec581611eae565b82525050565b60008115159050919050565b611ee081611ecb565b82525050565b600061018082019050611efc600083018f611d53565b611f09602083018e611dfc565b611f16604083018d611dfc565b611f23606083018c611e9f565b611f30608083018b611ebc565b611f3d60a083018a611ebc565b611f4a60c0830189611ebc565b611f5760e0830188611ebc565b611f65610100830187611d53565b611f73610120830186611d53565b611f81610140830185611d53565b611f8f610160830184611ed7565b9d9c50505050505050505050505050565b6000611fab82611caf565b9050919050565b611fbb81611fa0565b82525050565b6000602082019050611fd66000830184611fb2565b92915050565b611fe581611e92565b8114611ff057600080fd5b50565b60008135905061200281611fdc565b92915050565b61201181611eae565b811461201c57600080fd5b50565b60008135905061202e81612008565b92915050565b60008060008060008060008060006101208a8c03121561205757612056611d87565b5b60006120658c828d01611e3d565b99505060206120768c828d01611ff3565b98505060406120878c828d0161201f565b97505060606120988c828d0161201f565b96505060806120a98c828d0161201f565b95505060a06120ba8c828d0161201f565b94505060c06120cb8c828d01611da8565b93505060e06120dc8c828d01611da8565b9250506101006120ee8c828d01611da8565b9150509295985092959850929598565b61210781611ecb565b811461211257600080fd5b50565b600081359050612124816120fe565b92915050565b6000602082840312156121405761213f611d87565b5b600061214e84828501612115565b91505092915050565b600081519050919050565b600082825260208201905092915050565b6000819050602082019050919050565b61218c81611d49565b82525050565b61219b81611dea565b82525050565b6121aa81611e92565b82525050565b6121b981611eae565b82525050565b6121c881611ecb565b82525050565b610180820160008201516121e56000850182612183565b5060208201516121f86020850182612192565b50604082015161220b6040850182612192565b50606082015161221e60608501826121a1565b50608082015161223160808501826121b0565b5060a082015161224460a08501826121b0565b5060c082015161225760c08501826121b0565b5060e082015161226a60e08501826121b0565b5061010082015161227f610100850182612183565b50610120820151612294610120850182612183565b506101408201516122a9610140850182612183565b506101608201516122be6101608501826121bf565b50505050565b60006122d083836121ce565b6101808301905092915050565b6000602082019050919050565b60006122f582612157565b6122ff8185612162565b935061230a83612173565b8060005b8381101561233b57815161232288826122c4565b975061232d836122dd565b92505060018101905061230e565b5085935050505092915050565b6000602082019050818103600083015261236281846122ea565b905092915050565b600080fd5b600080fd5b6000601f19601f8301169050919050565b7f4e487b7100000000000000000000000000000000000000000000000000000000600052604160045260246000fd5b6123bd82612374565b810181811067ffffffffffffffff821117156123dc576123db612385565b5b80604052505050565b60006123ef611d7d565b90506123fb82826123b4565b919050565b600067ffffffffffffffff82111561241b5761241a612385565b5b61242482612374565b9050602081019050919050565b82818337600083830152505050565b600061245361244e84612400565b6123e5565b90508281526020810184848401111561246f5761246e61236f565b5b61247a848285612431565b509392505050565b600082601f8301126124975761249661236a565b5b81356124a7848260208601612440565b91505092915050565b6000602082840312156124c6576124c5611d87565b5b600082013567ffffffffffffffff8111156124e4576124e3611d8c565b5b6124f084828501612482565b91505092915050565b600081519050919050565b600082825260208201905092915050565b60005b83811015612533578082015181840152602081019050612518565b60008484015250505050565b600061254a826124f9565b6125548185612504565b9350612564818560208601612515565b61256d81612374565b840191505092915050565b60006020820190508181036000830152612592818461253f565b905092915050565b600080fd5b6000819050826020601802820111156125bb576125ba61259a565b5b92915050565b6000819050826020600402820111156125dd576125dc61259a565b5b92915050565b60008060006103a084860312156125fd576125fc611d87565b5b600061260b86828701611da8565b935050602061261c8682870161259f565b92505061032061262e868287016125c1565b9150509250925092565b7f4e487b7100000000000000000000000000000000000000000000000000000000600052603260045260246000fd5b7f4e487b7100000000000000000000000000000000000000000000000000000000600052601160045260246000fd5b60006126a182611d49565b91506126ac83611d49565b92508282026126ba81611d49565b915082820484148315176126d1576126d0612667565b5b5092915050565b60006126e382611d49565b91507fffffffffffffffffffffffffffffffffffffffffffffffffffffffffffffffff820361271557612714612667565b5b600182019050919050565b7f496e76616c69645075625369676e616c73000000000000000000000000000000600082015250565b6000612756601183612504565b915061276182612720565b602082019050919050565b6000602082019050818103600083015261278581612749565b9050919050565b82818337505050565b6127a2610300838361278c565b5050565b6127b26080838361278c565b5050565b6000610380820190506127cc6000830185612795565b6127da6103008301846127a6565b9392505050565b6000815190506127f0816120fe565b92915050565b60006020828403121561280c5761280b611d87565b5b600061281a848285016127e1565b9150509291505056fea2646970667358221220337e928693e718c1d8a4cb7d98f54c6edcfff241acd53c22026a9c174658e5bd64736f6c63430008140033",
  "linkReferences": {},
  "deployedLinkReferences": {}
}